{
  "_format": "hh-sol-artifact-1",
  "contractName": "ERC2771Context",
  "sourceName": "lib/openzeppelin-contracts/contracts/metatx/ERC2771Context.sol",
  "abi": [
    {
      "inputs": [
        {
          "internalType": "address",
          "name": "trustedForwarder",
          "type": "address"
        }
      ],
      "stateMutability": "nonpayable",
      "type": "constructor"
    },
    {
      "inputs": [
        {
          "internalType": "address",
          "name": "forwarder",
          "type": "address"
        }
      ],
      "name": "isTrustedForwarder",
      "outputs": [
        {
          "internalType": "bool",
          "name": "",
          "type": "bool"
        }
      ],
      "stateMutability": "view",
      "type": "function"
    }
  ],
  "bytecode": "0x60a060405234801561001057600080fd5b506040516102ca3803806102ca833981810160405281019061003291906100cf565b8073ffffffffffffffffffffffffffffffffffffffff1660808173ffffffffffffffffffffffffffffffffffffffff1681525050506100fc565b600080fd5b600073ffffffffffffffffffffffffffffffffffffffff82169050919050565b600061009c82610071565b9050919050565b6100ac81610091565b81146100b757600080fd5b50565b6000815190506100c9816100a3565b92915050565b6000602082840312156100e5576100e461006c565b5b60006100f3848285016100ba565b91505092915050565b6080516101b46101166000396000606401526101b46000f3fe608060405234801561001057600080fd5b506004361061002b5760003560e01c8063572b6c0514610030575b600080fd5b61004a6004803603810190610045919061011b565b610060565b6040516100579190610163565b60405180910390f35b60007f000000000000000000000000000000000000000000000000000000000000000073ffffffffffffffffffffffffffffffffffffffff168273ffffffffffffffffffffffffffffffffffffffff16149050919050565b600080fd5b600073ffffffffffffffffffffffffffffffffffffffff82169050919050565b60006100e8826100bd565b9050919050565b6100f8816100dd565b811461010357600080fd5b50565b600081359050610115816100ef565b92915050565b600060208284031215610131576101306100b8565b5b600061013f84828501610106565b91505092915050565b60008115159050919050565b61015d81610148565b82525050565b60006020820190506101786000830184610154565b9291505056fea2646970667358221220cc408cc409bb72808ffb5e39675b2e188a865d14200771c22efdcf6ac56fe3b364736f6c63430008120033",
  "linkReferences": {},
  "deployedLinkReferences": {}
}