{
  "_format": "hh-sol-artifact-1",
  "contractName": "Swapper",
  "sourceName": "src/Swapper.sol",
  "abi": [
    {
      "inputs": [
        {
          "internalType": "address",
          "name": "trustedForwarder",
          "type": "address"
        }
      ],
      "stateMutability": "nonpayable",
      "type": "constructor"
    },
    {
      "inputs": [
        {
          "internalType": "uint256",
          "name": "_amount",
          "type": "uint256"
        }
      ],
      "name": "AddDAILiquidity",
      "outputs": [],
      "stateMutability": "nonpayable",
      "type": "function"
    },
    {
      "inputs": [
        {
          "internalType": "uint256",
          "name": "_amount",
          "type": "uint256"
        }
      ],
      "name": "AddLINKLiquidity",
      "outputs": [],
      "stateMutability": "nonpayable",
      "type": "function"
    },
    {
      "inputs": [],
      "name": "getDAIUSDPrice",
      "outputs": [
        {
          "internalType": "uint256",
          "name": "",
          "type": "uint256"
        }
      ],
      "stateMutability": "view",
      "type": "function"
    },
    {
      "inputs": [],
      "name": "getLINKUSDPrice",
      "outputs": [
        {
          "internalType": "uint256",
          "name": "",
          "type": "uint256"
        }
      ],
      "stateMutability": "view",
      "type": "function"
    },
    {
      "inputs": [
        {
          "internalType": "address",
          "name": "forwarder",
          "type": "address"
        }
      ],
      "name": "isTrustedForwarder",
      "outputs": [
        {
          "internalType": "bool",
          "name": "",
          "type": "bool"
        }
      ],
      "stateMutability": "view",
      "type": "function"
    },
    {
      "inputs": [],
      "name": "removeDAIliquidity",
      "outputs": [],
      "stateMutability": "nonpayable",
      "type": "function"
    },
    {
      "inputs": [],
      "name": "removeLINKliquidity",
      "outputs": [],
      "stateMutability": "nonpayable",
      "type": "function"
    },
    {
      "inputs": [
        {
          "internalType": "uint256",
          "name": "dai_amount",
          "type": "uint256"
        }
      ],
      "name": "swapDAIforLINK",
      "outputs": [],
      "stateMutability": "nonpayable",
      "type": "function"
    },
    {
      "inputs": [
        {
          "internalType": "uint256",
          "name": "LINK_amount",
          "type": "uint256"
        }
      ],
      "name": "swapLINKforDai",
      "outputs": [],
      "stateMutability": "nonpayable",
      "type": "function"
    }
  ],
  "bytecode": "0x60a06040523480156200001157600080fd5b50604051620016e5380380620016e5833981810160405281019062000037919062000231565b808073ffffffffffffffffffffffffffffffffffffffff1660808173ffffffffffffffffffffffffffffffffffffffff168152505050736b175474e89094c44da98b954eedeac495271d0f600260006101000a81548173ffffffffffffffffffffffffffffffffffffffff021916908373ffffffffffffffffffffffffffffffffffffffff16021790555073a0b86991c6218b36c1d19d4a2e9eb0ce3606eb48600360006101000a81548173ffffffffffffffffffffffffffffffffffffffff021916908373ffffffffffffffffffffffffffffffffffffffff160217905550730d79df66be487753b02d015fb622ded7f0e9798d6000806101000a81548173ffffffffffffffffffffffffffffffffffffffff021916908373ffffffffffffffffffffffffffffffffffffffff16021790555073ab5c49580294aff77670f839ea425f5b78ab3ae7600160006101000a81548173ffffffffffffffffffffffffffffffffffffffff021916908373ffffffffffffffffffffffffffffffffffffffff1602179055505062000263565b600080fd5b600073ffffffffffffffffffffffffffffffffffffffff82169050919050565b6000620001f982620001cc565b9050919050565b6200020b81620001ec565b81146200021757600080fd5b50565b6000815190506200022b8162000200565b92915050565b6000602082840312156200024a5762000249620001c7565b5b60006200025a848285016200021a565b91505092915050565b6080516114666200027f60003960006107ee01526114666000f3fe608060405234801561001057600080fd5b50600436106100935760003560e01c806357b5c7051161006657806357b5c7051461011c5780638c54f8a914610138578063a26e98e314610156578063d7427b7914610174578063f4938d251461017e57610093565b806304b0ce9f1461009857806327bfb190146100b4578063309788e5146100d0578063572b6c05146100ec575b600080fd5b6100b260048036038101906100ad9190610e57565b610188565b005b6100ce60048036038101906100c99190610e57565b6102fc565b005b6100ea60048036038101906100e59190610e57565b610573565b005b61010660048036038101906101019190610ee2565b6107ea565b6040516101139190610f2a565b60405180910390f35b61013660048036038101906101319190610e57565b610842565b005b6101406109bc565b60405161014d9190610f54565b60405180910390f35b61015e610a63565b60405161016b9190610f54565b60405180910390f35b61017c610b1f565b005b610186610c5a565b005b600360009054906101000a900473ffffffffffffffffffffffffffffffffffffffff1673ffffffffffffffffffffffffffffffffffffffff166323b872dd6101ce610d95565b30846040518463ffffffff1660e01b81526004016101ee93929190610f7e565b6020604051808303816000875af115801561020d573d6000803e3d6000fd5b505050506040513d601f19601f820116820180604052508101906102319190610fe1565b50806006600061023f610d95565b73ffffffffffffffffffffffffffffffffffffffff1673ffffffffffffffffffffffffffffffffffffffff1681526020019081526020016000206000828254610288919061103d565b925050819055506007610299610d95565b9080600181540180825580915050600190039060005260206000200160009091909190916101000a81548173ffffffffffffffffffffffffffffffffffffffff021916908373ffffffffffffffffffffffffffffffffffffffff16021790555050565b6000610306610d95565b9050600360009054906101000a900473ffffffffffffffffffffffffffffffffffffffff1673ffffffffffffffffffffffffffffffffffffffff166323b872dd61034e610d95565b30856040518463ffffffff1660e01b815260040161036e93929190610f7e565b6020604051808303816000875af115801561038d573d6000803e3d6000fd5b505050506040513d601f19601f820116820180604052508101906103b19190610fe1565b5060006103bc610a63565b905060006103c86109bc565b905060008185846103d99190611071565b6103e391906110e2565b90506000600260009054906101000a900473ffffffffffffffffffffffffffffffffffffffff1673ffffffffffffffffffffffffffffffffffffffff166370a08231306040518263ffffffff1660e01b81526004016104429190611113565b602060405180830381865afa15801561045f573d6000803e3d6000fd5b505050506040513d601f19601f820116820180604052508101906104839190611143565b9050818110156104c8576040517f08c379a00000000000000000000000000000000000000000000000000000000081526004016104bf906111cd565b60405180910390fd5b600260009054906101000a900473ffffffffffffffffffffffffffffffffffffffff1673ffffffffffffffffffffffffffffffffffffffff166323b872dd3087856040518463ffffffff1660e01b815260040161052793929190610f7e565b6020604051808303816000875af1158015610546573d6000803e3d6000fd5b505050506040513d601f19601f8201168201806040525081019061056a9190610fe1565b50505050505050565b600061057d610d95565b9050600260009054906101000a900473ffffffffffffffffffffffffffffffffffffffff1673ffffffffffffffffffffffffffffffffffffffff166323b872dd6105c5610d95565b30856040518463ffffffff1660e01b81526004016105e593929190610f7e565b6020604051808303816000875af1158015610604573d6000803e3d6000fd5b505050506040513d601f19601f820116820180604052508101906106289190610fe1565b506000610633610a63565b9050600061063f6109bc565b905060008285836106509190611071565b61065a91906110e2565b90506000600360009054906101000a900473ffffffffffffffffffffffffffffffffffffffff1673ffffffffffffffffffffffffffffffffffffffff166370a08231306040518263ffffffff1660e01b81526004016106b99190611113565b602060405180830381865afa1580156106d6573d6000803e3d6000fd5b505050506040513d601f19601f820116820180604052508101906106fa9190611143565b90508181101561073f576040517f08c379a0000000000000000000000000000000000000000000000000000000008152600401610736906111cd565b60405180910390fd5b600360009054906101000a900473ffffffffffffffffffffffffffffffffffffffff1673ffffffffffffffffffffffffffffffffffffffff166323b872dd3087856040518463ffffffff1660e01b815260040161079e93929190610f7e565b6020604051808303816000875af11580156107bd573d6000803e3d6000fd5b505050506040513d601f19601f820116820180604052508101906107e19190610fe1565b50505050505050565b60007f000000000000000000000000000000000000000000000000000000000000000073ffffffffffffffffffffffffffffffffffffffff168273ffffffffffffffffffffffffffffffffffffffff16149050919050565b600061084c610d95565b9050600260009054906101000a900473ffffffffffffffffffffffffffffffffffffffff1673ffffffffffffffffffffffffffffffffffffffff166323b872dd8230856040518463ffffffff1660e01b81526004016108ad93929190610f7e565b6020604051808303816000875af11580156108cc573d6000803e3d6000fd5b505050506040513d601f19601f820116820180604052508101906108f09190610fe1565b5081600460006108fe610d95565b73ffffffffffffffffffffffffffffffffffffffff1673ffffffffffffffffffffffffffffffffffffffff1681526020019081526020016000206000828254610947919061103d565b925050819055506005610958610d95565b9080600181540180825580915050600190039060005260206000200160009091909190916101000a81548173ffffffffffffffffffffffffffffffffffffffff021916908373ffffffffffffffffffffffffffffffffffffffff1602179055505050565b60008060008054906101000a900473ffffffffffffffffffffffffffffffffffffffff1673ffffffffffffffffffffffffffffffffffffffff1663feaf968c6040518163ffffffff1660e01b815260040160a060405180830381865afa158015610a2a573d6000803e3d6000fd5b505050506040513d601f19601f82011682018060405250810190610a4e9190611265565b505050915050610a5d81610dc7565b91505090565b600080600160009054906101000a900473ffffffffffffffffffffffffffffffffffffffff1673ffffffffffffffffffffffffffffffffffffffff1663feaf968c6040518163ffffffff1660e01b815260040160a060405180830381865afa158015610ad3573d6000803e3d6000fd5b505050506040513d601f19601f82011682018060405250810190610af79190611265565b505050915050610b19670de0b6b3a764000082610b1491906112e0565b610dc7565b91505090565b600060066000610b2d610d95565b73ffffffffffffffffffffffffffffffffffffffff1673ffffffffffffffffffffffffffffffffffffffff16815260200190815260200160002054905060008103610bad576040517f08c379a0000000000000000000000000000000000000000000000000000000008152600401610ba4906113a4565b60405180910390fd5b600360009054906101000a900473ffffffffffffffffffffffffffffffffffffffff1673ffffffffffffffffffffffffffffffffffffffff166323b872dd30610bf4610d95565b846040518463ffffffff1660e01b8152600401610c1393929190610f7e565b6020604051808303816000875af1158015610c32573d6000803e3d6000fd5b505050506040513d601f19601f82011682018060405250810190610c569190610fe1565b5050565b600060046000610c68610d95565b73ffffffffffffffffffffffffffffffffffffffff1673ffffffffffffffffffffffffffffffffffffffff16815260200190815260200160002054905060008103610ce8576040517f08c379a0000000000000000000000000000000000000000000000000000000008152600401610cdf906113a4565b60405180910390fd5b600260009054906101000a900473ffffffffffffffffffffffffffffffffffffffff1673ffffffffffffffffffffffffffffffffffffffff166323b872dd30610d2f610d95565b846040518463ffffffff1660e01b8152600401610d4e93929190610f7e565b6020604051808303816000875af1158015610d6d573d6000803e3d6000fd5b505050506040513d601f19601f82011682018060405250810190610d919190610fe1565b5050565b6000610da0336107ea565b15610db457601436033560601c9050610dc3565b610dbc610e14565b9050610dc4565b5b90565b600080821215610e0c576040517f08c379a0000000000000000000000000000000000000000000000000000000008152600401610e0390611410565b60405180910390fd5b819050919050565b600033905090565b600080fd5b6000819050919050565b610e3481610e21565b8114610e3f57600080fd5b50565b600081359050610e5181610e2b565b92915050565b600060208284031215610e6d57610e6c610e1c565b5b6000610e7b84828501610e42565b91505092915050565b600073ffffffffffffffffffffffffffffffffffffffff82169050919050565b6000610eaf82610e84565b9050919050565b610ebf81610ea4565b8114610eca57600080fd5b50565b600081359050610edc81610eb6565b92915050565b600060208284031215610ef857610ef7610e1c565b5b6000610f0684828501610ecd565b91505092915050565b60008115159050919050565b610f2481610f0f565b82525050565b6000602082019050610f3f6000830184610f1b565b92915050565b610f4e81610e21565b82525050565b6000602082019050610f696000830184610f45565b92915050565b610f7881610ea4565b82525050565b6000606082019050610f936000830186610f6f565b610fa06020830185610f6f565b610fad6040830184610f45565b949350505050565b610fbe81610f0f565b8114610fc957600080fd5b50565b600081519050610fdb81610fb5565b92915050565b600060208284031215610ff757610ff6610e1c565b5b600061100584828501610fcc565b91505092915050565b7f4e487b7100000000000000000000000000000000000000000000000000000000600052601160045260246000fd5b600061104882610e21565b915061105383610e21565b925082820190508082111561106b5761106a61100e565b5b92915050565b600061107c82610e21565b915061108783610e21565b925082820261109581610e21565b915082820484148315176110ac576110ab61100e565b5b5092915050565b7f4e487b7100000000000000000000000000000000000000000000000000000000600052601260045260246000fd5b60006110ed82610e21565b91506110f883610e21565b925082611108576111076110b3565b5b828204905092915050565b60006020820190506111286000830184610f6f565b92915050565b60008151905061113d81610e2b565b92915050565b60006020828403121561115957611158610e1c565b5b60006111678482850161112e565b91505092915050565b600082825260208201905092915050565b7f6e6f7420656e6f756768206c69717569646974792c20636865636b206261636b600082015250565b60006111b7602083611170565b91506111c282611181565b602082019050919050565b600060208201905081810360008301526111e6816111aa565b9050919050565b600069ffffffffffffffffffff82169050919050565b61120c816111ed565b811461121757600080fd5b50565b60008151905061122981611203565b92915050565b6000819050919050565b6112428161122f565b811461124d57600080fd5b50565b60008151905061125f81611239565b92915050565b600080600080600060a0868803121561128157611280610e1c565b5b600061128f8882890161121a565b95505060206112a088828901611250565b94505060406112b18882890161112e565b93505060606112c28882890161112e565b92505060806112d38882890161121a565b9150509295509295909350565b60006112eb8261122f565b91506112f68361122f565b92508282026113048161122f565b91507f8000000000000000000000000000000000000000000000000000000000000000841460008412161561133c5761133b61100e565b5b82820584148315176113515761135061100e565b5b5092915050565b7f6e6f2062616c616e636500000000000000000000000000000000000000000000600082015250565b600061138e600a83611170565b915061139982611358565b602082019050919050565b600060208201905081810360008301526113bd81611381565b9050919050565b7f53616665436173743a2076616c7565206d75737420626520706f736974697665600082015250565b60006113fa602083611170565b9150611405826113c4565b602082019050919050565b60006020820190508181036000830152611429816113ed565b905091905056fea2646970667358221220fc350b36efc46254bdd278e258755f742127c91c208baeb0e7f2185293fedc3664736f6c63430008120033",
  "linkReferences": {},
  "deployedLinkReferences": {}
}